{"priority_fee":"2389700000000000","tx_burnt_fee":"0","raw_input":"0x7acaaf260000000000000000000000000000000000000000000000000000000000000120000000000000000000000000b769befa05c7d9b08062630e351e865d3f49c56d0000000000000000000000000000000000000000000000000000000001e13380fc9512da256f7dcce242faa07726e4b9ba5d40f868fd0f7f7aedb991791783d7000000000000000000000000aad90fd5a09629c345bb670854144d7834cfdaa20000000000000000000000000000000000000000000000000000000000000160000000000000000000000000000000000000000000000000000000000000000000000000000000000000000000000000000000000000000000000000000000000000000000000000000000000000000000000000000000000000000000000000000000000000000000000000000000000000000000000000000000000000000d6c616c616c6131323232323333000000000000000000000000000000000000000000000000000000000000000000000000000000000000000000000000000000","result":"awaiting_internal_transactions","hash":"0x42033dae9d12b7250b0d0251bcf8eef59998fa73307f1f28301c2cbe37099aad","max_fee_per_gas":"100000000000","revert_reason":null,"confirmation_duration":[0,3182.0],"type":2,"token_transfers_overflow":false,"confirmations":353,"position":5,"max_priority_fee_per_gas":"100000000000","transaction_tag":null,"created_contract":null,"value":"3125000000003490","tx_types":["coin_transfer","contract_call"],"from":{"ens_domain_name":null,"hash":"0xb769BEFa05c7D9B08062630E351e865d3F49c56D","implementations":[],"is_contract":false,"is_scam":false,"is_verified":false,"metadata":null,"name":null,"private_tags":[],"proxy_type":null,"public_tags":[],"watchlist_names":[]},"gas_used":"23897","status":"error","to":{"ens_domain_name":null,"hash":"0x0596BF7126D91241fC49adeDafAc859DF45eE0d8","implementations":[],"is_contract":true,"is_scam":false,"is_verified":false,"metadata":null,"name":null,"private_tags":[],"proxy_type":null,"public_tags":[],"watchlist_names":[]},"authorization_list":[],"method":"register","fee":{"type":"actual","value":"2389700000000000"},"tx_tag":null,"actions":[],"gas_limit":"450000","gas_price":"100000000000","decoded_input":{"method_call":"register(string arg0, address arg1, uint256 arg2, bytes32 arg3, address arg4, bytes[] arg5, bool arg6, uint32 arg7, uint64 arg8)","method_id":"7acaaf26","parameters":[{"name":"arg0","type":"string","value":"lalala1222233"},{"name":"arg1","type":"address","value":"0xb769BEFa05c7D9B08062630E351e865d3F49c56D"},{"name":"arg2","type":"uint256","value":"31536000"},{"name":"arg3","type":"bytes32","value":"0xfc9512da256f7dcce242faa07726e4b9ba5d40f868fd0f7f7aedb991791783d7"},{"name":"arg4","type":"address","value":"0xaad90fD5a09629c345BB670854144d7834cfDAa2"},{"name":"arg5","type":"bytes[]","value":[]},{"name":"arg6","type":"bool","value":"false"},{"name":"arg7","type":"uint32","value":"0"},{"name":"arg8","type":"uint64","value":"0"}]},"has_error_in_internal_txs":null,"token_transfers":[],"base_fee_per_gas":"0","timestamp":"2025-09-08T03:23:21.000000Z","nonce":8,"block":197938,"transaction_types":["coin_transfer","contract_call"],"exchange_rate":null,"block_number":197938,"has_error_in_internal_transactions":null}